:100000000C945E000C9486000C9486000C94860080
:100010000C9486000C9486000C9486000C94860048
:100020000C9486000C9486000C9486000C94880036
:100030000C9486000C9486000C9486000C94860028
:100040000C94C1030C9486000C946E060C94A006CC
:100050000C9486000C9486000C9486000C94860008
:100060000C9486000C948600000000080002010039
:100070000003040700000000000000000102040863
:100080001020408001020408102001020408102002
:10009000040404040404040402020202020203032E
:1000A0000303030300000000250028002B000000CC
:1000B0000000240027002A008E03D00611241FBE52
:1000C000CFEFD8E0DEBFCDBF11E0A0E0B1E0E6E2C7
:1000D000F3E102C005900D92A233B107D9F722E0F7
:1000E000A2E3B1E001C01D92A630B207E1F710E033
:1000F000CCEBD0E004C02297FE010E941909C83B56
:10010000D107C9F70E9481030C9491090C94000057
:100110001F920F920FB60F9211242F933F934F937C
:100120005F936F937F938F939F93AF93BF93EF935F
:10013000FF938091330187FF05C0109285001092D4
:1001400084001AC020913301332727FD3095809118
:10015000320190E0281739077CF480913301992708
:1001600087FD9095FC01EE0FFF1FE80FF91FEC5C77
:10017000FE4F808186FD15C0809133018F5F809393
:10018000330120913301332727FD309580913201CF
:1001900090E028173907BCF4809133018C3054F17A
:1001A00012C080913301992787FD9095FC01EE0FD5
:1001B000FF1FE80FF91FEC5CFE4F808160E08F733A
:1001C0000E94F304D9CF80918400909185008434FB
:1001D0009C4918F480E49CE905C0809184009091CA
:1001E0008500049690938900809388008FEF809318
:1001F000330138C0809184009091850020913301B3
:10020000332727FD3095F901EE0FFF1FE20FF31F93
:10021000EC5CFE4F21813281820F931F9093890005
:100220008093880080913301992787FD9095FC0188
:10023000EE0FFF1FE80FF91FEC5CFE4F808186FF79
:1002400011C080913301992787FD9095FC01EE0F35
:10025000FF1FE80FF91FEC5CFE4F808161E08F7398
:100260000E94F304FF91EF91BF91AF919F918F9105
:100270007F916F915F914F913F912F910F900FBEA2
:100280000F901F901895209132012C30A0F431E08E
:10029000320F30933201FC012083822F90E0FC0169
:1002A000EE0FFF1FE80FF91FEC5CFE4F88EB9BE0A1
:1002B0009283818308952FEFFC0120830895DF92BC
:1002C000EF92FF920F931F93CF93DF93EC01D62E03
:1002D0007A01890188818C3008F066C061E08D2D3B
:1002E0000E94BA048881A82FB0E0FD01EE0FFF1F25
:1002F000EA0FFB1FEC5CFE4F2D2D2F739081907C3D
:10030000922B908360E272E06E197F0977FF02C042
:100310006D5F7F4F7595679575956795698340E625
:1003200059E0401B510B57FF02C04D5F5F4F559581
:100330004795559547954A836CE00E94BF089CE01D
:10034000899FB001112420E030E0A901460F571F1A
:10035000FA01EE0FFF1FE40FF51FEC5CFE4F9081DA
:1003600096FD16C02F5F3F4F2C30310571F781117C
:100370000FC01092800082E080938100109285006F
:1003800010928400B19A80916F00826080936F0018
:10039000888190E0FC01EE0FFF1FE80FF91FEC5C75
:1003A000FE4F8081806480838881DF91CF911F918F
:1003B0000F91FF90EF90DF90089520E639E040E242
:1003C00052E00C945F01FC0180818C3070F59181CA
:1003D00028E830E0291B310997FD3395220F331FA0
:1003E000220F331F621773077CF0928128E532E0F9
:1003F000291B310997FD3395220F331F220F331F1D
:10040000621773070CF49B014FB7F89490E0FC015E
:10041000EE0FFF1FE80FF91FEC5CFE4F265031096D
:10042000220F331F328321834FBF08954F925F9273
:100430006F927F92AF92BF92CF92DF92EF92FF9234
:100440000F931F93CF93DF93EC01603282E0780724
:100450000CF040C077FD06C0653B71052CF064EBE5
:1004600070E002C060E070E0898128E830E0281B7D
:10047000310987FD3395220F331F220F331F590196
:10048000CC24B7FCC094DC2C882777FD8095982F6E
:100490002A8148E552E0421B510927FD5395440F3C
:1004A000551F440F551F2A01662457FC6094762C73
:1004B0007F926F925F924F9214EBE12EF12C00E04D
:1004C00010E020E030E0A9010E9467080F900F9033
:1004D0000F900F90CE01DF91CF911F910F91FF9060
:1004E000EF90DF90CF90BF90AF907F906F905F9034
:1004F0004F900C94E30126E040E855E260E070E0A4
:1005000089E691E00E940C0661E0809107010E945B
:10051000BA0461E0809106010E94BA04609105016D
:1005200070E08BE591E00E94DD016091040170E0D4
:1005300088E591E00E94DD0160E070E08BE591E0EC
:100540000E94160260E070E088E591E00E941602C9
:1005500068EE73E080E090E00E942E0444EF51E0EA
:1005600065E0809106010C94960326E930E040E0B6
:1005700050E064E170E080E090E00E944B08AB0145
:10058000BC012AE030E089E691E00C940108CF93A9
:10059000C62F682F70E08BE591E00E9416026C2F49
:1005A00070E088E591E0CF910C941602CF93109201
:1005B0005E01C4EB80915E01843B08F097C010920D
:1005C0005F0180915F01853BE0F56AE071E089E6BB
:1005D00091E00E9451074AE050E060915E0189E697
:1005E00091E00E9420086CE071E089E691E00E94B1
:1005F00051074AE050E060915F0189E691E00E9476
:1006000020086FE071E089E691E00E9451070E94A6
:10061000B50269E170E080E090E00E942E046091F4
:100620005E0180915F010E94C7026FE070E080E090
:1006300090E00E942E0480915F01865F80935F01AD
:10064000C0CF89E691E00E945A0780915E01865FE3
:1006500080935E01C0935F0180915F018823E1F187
:100660006AE071E089E691E00E9451074AE050E0BB
:1006700060915E0189E691E00E9420086CE071E0E3
:1006800089E691E00E9451074AE050E060915F01E5
:1006900089E691E00E9420086FE071E089E691E030
:1006A0000E9451070E94B50269E170E080E090E08D
:1006B0000E942E0460915E0180915F010E94C7023A
:1006C0006FE070E080E090E00E942E0480915F0176
:1006D0008A5080935F01C0CF89E691E00E945A075B
:1006E00080915E01865F80935E0164CF60E080E070
:1006F0000E94C70264EF71E080E090E0CF910C941B
:100700002E040E9456040E947B02C6E5D5E00E949A
:10071000D6022097E1F30E945605F9CF8BE591E0D0
:100720000E94430188E591E00C944301CF92DF924F
:10073000EF92FF921F93CF93DF93D82F162F5695EA
:1007400047956A01E12CF12CC0E0C11791F061E0FE
:100750008D2F0E94F304C701B6010E942E0460E0B1
:100760008D2F0E94F304C701B6010E942E04CF5FB3
:10077000ECCFDF91CF911F91FF90EF90DF90CF9062
:1007800008951F920F920FB60F9211242F933F934B
:100790008F939F93AF93BF9380916101909162017A
:1007A000A0916301B09164013091600123E0230FB7
:1007B0002D3720F40196A11DB11D05C026E8230F99
:1007C0000296A11DB11D2093600180936101909359
:1007D0006201A0936301B0936401809165019091DF
:1007E0006601A0916701B09168010196A11DB11D3C
:1007F0008093650190936601A0936701B0936801AF
:10080000BF91AF919F918F913F912F910F900FBE0C
:100810000F901F9018953FB7F894809165019091C3
:100820006601A0916701B091680126B5A89B05C03B
:100830002F3F19F00196A11DB11D3FBF6627782FEC
:10084000892F9A2F620F711D811D911D42E0660F45
:10085000771F881F991F4A95D1F70895CF92DF928D
:10086000EF92FF92CF93DF936B017C010E940B0408
:10087000EB01C114D104E104F10489F00E94AE0837
:100880000E940B046C1B7D0B683E734090F381E06B
:10089000C81AD108E108F108C851DC4FEACFDF914E
:1008A000CF91FF90EF90DF90CF900895789484B52A
:1008B000826084BD84B5816084BD85B5826085BD5C
:1008C00085B5816085BDEEE6F0E080818160808342
:1008D000E1E8F0E010828081826080838081816025
:1008E0008083E0E8F0E0808181608083E1EBF0E0EC
:1008F000808184608083E0EBF0E080818160808390
:10090000EAE7F0E080818460808380818260808378
:100910008081816080838081806880831092C100A3
:100920000895833081F028F4813099F08230A1F06D
:1009300008958730A9F08830B9F08430D1F48091DF
:1009400080008F7D03C0809180008F77809380002E
:10095000089584B58F7702C084B58F7D84BD0895D6
:100960008091B0008F7703C08091B0008F7D80931D
:10097000B0000895CF93DF9390E0FC01E458FF4F5F
:100980002491FC01E057FF4F8491882349F190E0C6
:10099000880F991FFC01E255FF4FA591B4918C552A
:1009A0009F4FFC01C591D4919FB7611108C0F89485
:1009B0008C91209582238C93888182230AC0623097
:1009C00051F4F8948C91322F309583238C93888145
:1009D000822B888304C0F8948C91822B8C939FBFC8
:1009E000DF91CF9108950F931F93CF93DF931F92C1
:1009F000CDB7DEB7282F30E0F901E859FF4F8491D9
:100A0000F901E458FF4F1491F901E057FF4F0491A9
:100A10000023C9F0882321F069830E949104698131
:100A2000E02FF0E0EE0FFF1FEC55FF4FA591B491C2
:100A30009FB7F8948C91611103C01095812301C078
:100A4000812B8C939FBF0F90DF91CF911F910F91BE
:100A50000895FC01818D228D90E0805C9F4F821B68
:100A600091098F7399270895FC01918D828D9817B4
:100A700031F0828DE80FF11D858D90E008958FEFA4
:100A80009FEF0895FC01918D828D981761F0828D02
:100A9000DF01A80FB11D5D968C91928D9F5F9F73B2
:100AA000928F90E008958FEF9FEF089586EC96E087
:100AB000892B49F080E090E0892B29F00E94C6063E
:100AC00081110C9400000895FC01848DDF01A80FB2
:100AD000B11DA35ABF4F2C91848D90E001968F7366
:100AE0009927848FA689B7892C93A089B1898C9185
:100AF00080648C93938D848D981306C00288F3894B
:100B0000E02D80818F7D80830895CF93DF93EC016A
:100B1000888D8823C9F0EA89FB89808185FD05C01D
:100B2000A889B9898C9186FD0FC00FB607FCF5CF57
:100B3000808185FFF2CFA889B9898C9185FFEDCF9F
:100B4000CE010E946405E7CFDF91CF910895CF9247
:100B5000DF92FF920F931F93CF93DF931F92CDB736
:100B6000DEB76C0181E0D60158968C9358975B965E
:100B70009C915B975C968C915C97981307C05096FC
:100B8000ED91FC915197808185FD2EC0F601038D7A
:100B900010E00F5F1F4F0F731127F02EF601848DA9
:100BA000F81211C00FB607FCF9CFD6015096ED919F
:100BB000FC915197808185FFF1CFC60169830E9426
:100BC00064056981EBCF838DE80FF11DE35AFF4F78
:100BD0006083D6015B960C935B975296ED91FC91E6
:100BE0005397808180620CC0D6015696ED91FC919E
:100BF000579760835096ED91FC9151978081806466
:100C0000808381E090E00F90DF91CF911F910F9151
:100C1000FF90DF90CF900895BF92CF92DF92EF9236
:100C2000FF92CF93DF93EC016A017B01B22EE8893A
:100C3000F98982E08083411581EE580761057105CD
:100C4000A1F060E079E08DE390E0A70196010E94B9
:100C5000CB082150310941095109569547953795DF
:100C60002795211580E1380798F0E889F9891082E5
:100C700060E874E88EE190E0A70196010E94CB083D
:100C800021503109410951095695479537952795C6
:100C9000EC85FD853083EE85FF852083188EEC89F9
:100CA000FD89B082EA89FB89808180618083EA893D
:100CB000FB89808188608083EA89FB8980818068E4
:100CC0008083EA89FB8980818F7D8083DF91CF914A
:100CD000FF90EF90DF90CF90BF9008951F920F92FA
:100CE0000FB60F9211242F938F939F93EF93FF933F
:100CF000E0917901F0917A018081E0917F01F0919A
:100D0000800182FD12C09081809182018F5F8F737C
:100D100020918301821751F0E0918201F0E0E759C0
:100D2000FE4F958F8093820101C08081FF91EF91EA
:100D30009F918F912F910F900FBE0F901F9018953C
:100D40001F920F920FB60F9211242F933F934F9340
:100D50005F936F937F938F939F93AF93BF93EF9323
:100D6000FF9389E691E00E946405FF91EF91BF91A6
:100D7000AF919F918F917F916F915F914F913F9133
:100D80002F910F900FBE0F901F90189589E691E05C
:100D90000E94290521E0892B09F420E0822F089583
:100DA00010926C0110926B0188EE93E0A0E0B0E02D
:100DB00080936D0190936E01A0936F01B0937001C9
:100DC00085E191E090936A018093690185EC90E060
:100DD000909376018093750184EC90E09093780174
:100DE0008093770180EC90E090937A018093790171
:100DF00081EC90E090937C0180937B0182EC90E009
:100E000090937E0180937D0186EC90E09093800129
:100E100080937F01109282011092830110928401CD
:100E2000109285010895CF92DF92EF92FF920F9377
:100E30001F93CF93DF936C017A01EB01E60EF71E4F
:100E400000E010E0CE15DF0561F06991D601ED916B
:100E5000FC910190F081E02DC6010995080F191F42
:100E6000F1CFC801DF91CF911F910F91FF90EF90CB
:100E7000DF90CF9008956115710581F0DB010D9031
:100E80000020E9F7AD0141505109461B570BDC0129
:100E9000ED91FC910280F381E02D099480E090E0D7
:100EA00008950C943B07DC01ED91FC910190F081D9
:100EB000E02D099461E271E00C943B078F929F92C0
:100EC000AF92BF92CF92DF92EF92FF920F931F9358
:100ED000CF93DF93CDB7DEB7A1970FB6F894DEBFFF
:100EE0000FBECDBF7C01C42EE52FCB01D22E19A29F
:100EF00021E02D1510F02AE0D22E8E010F5D1F4F3C
:100F00008D2C912CA12CB12C6C2D7E2FA501940140
:100F10000E94CB088C2DD29E8019112401501109FA
:100F20008A3014F4805D01C0895CF801808321154A
:100F300031054105510521F0C22EE32FCA01E4CF4E
:100F4000B801C7010E943B07A1960FB6F894DEBF17
:100F50000FBECDBFDF91CF911F910F91FF90EF900A
:100F6000DF90CF90BF90AF909F908F900895CF92D9
:100F7000DF92EF92FF920F931F93CF93DF93EC01D9
:100F80006A017B012115310579F4E881F98101902D
:100F9000F081E02D642FDF91CF911F910F91FF9091
:100FA000EF90DF90CF9009942A303105E9F477FF74
:100FB0001AC06DE20E9453078C0144275527BA01DD
:100FC0004C195D096E097F092AE0CE010E945E0777
:100FD000800F911FDF91CF911F910F91FF90EF90A4
:100FE000DF90CF9008952AE0B701A601CE01DF91EE
:100FF000CF911F910F91FF90EF90DF90CF900C94C5
:101000005E070F931F93CF93DF93EC010E94B70706
:101010008C01CE010E945A07800F911FDF91CF9162
:101020001F910F9108952115310541F4DC01ED91D7
:10103000FC910190F081E02D642F09940C945E07DF
:101040009A01462F50E060E070E00C941308CF93B3
:10105000DF9300D000D0CDB7DEB79B01AC016115A6
:1010600071058105910569F069833A834B835C833F
:101070000E947B0929813A814B815C810E94ED08A5
:1010800003C060E070E0CB010F900F900F900F90C5
:10109000DF91CF910895CF92DF92EF92FF926B0193
:1010A0007C01621773078407950764F4CA01B901CC
:1010B0006C197D098E099F090E9427086C0D7D1D02
:1010C0008E1D9F1DFF90EF90DF90CF9008954F925F
:1010D0005F926F927F92AF92BF92CF92DF92EF9228
:1010E000FF920F931F93CF93DF93CDB7DEB7290104
:1010F0003A01621B730B840B950B29893A894B8942
:101100005C892A193B094C095D09298B3A8B4B8B69
:101110005C8B9B01AC0169897A898B899C890E94CF
:10112000AF08E418F50806091709A80197010E94FD
:10113000ED082A0D3B1D4C1D5D1DCA01B901DF9153
:10114000CF911F910F91FF90EF90DF90CF90BF90C4
:10115000AF907F906F905F904F9008950895DB015E
:101160008F939F930E940C09BF91AF91A29F800D16
:10117000911DA39F900DB29F900D11240895991B6E
:1011800079E004C0991F961708F0961B881F7A957E
:10119000C9F780950895A1E21A2EAA1BBB1BFD0179
:1011A0000DC0AA1FBB1FEE1FFF1FA217B307E40746
:1011B000F50720F0A21BB30BE40BF50B661F771F9E
:1011C000881F991F1A9469F760957095809590957E
:1011D0009B01AC01BD01CF010895052E97FB1EF4C4
:1011E00000940E94040957FD07D00E94CB0807FC19
:1011F00003D04EF40C9404095095409530952195F8
:101200003F4F4F4F5F4F0895909580957095619532
:101210007F4F8F4F9F4F08950E941D09A59F900DEE
:10122000B49F900DA49F800D911D11240895EE0F81
:10123000FF1F0590F491E02D0994A29FB001B39F88
:10124000C001A39F700D811D1124911DB29F700DCF
:10125000811D1124911D08958F929F92AF92BF928C
:10126000CF92DF92EF92FF92CF93DF93EC016881F0
:1012700079818A819B81611571058105910521F430
:1012800064E279ED8BE597E02DE133EF41E050E04A
:101290000E94ED0849015A019B01AC01A7EAB1E4A3
:1012A0000E940C096B017C01ACEEB4EFA501940126
:1012B0000E948C09C60ED71EE81EF91EF7FE06C056
:1012C00081E0C81AD108E10880E8F80AC882D9820A
:1012D000EA82FB82C701B6019F77DF91CF91FF9031
:1012E000EF90DF90CF90BF90AF909F908F90089538
:1012F0000E942C09089580E091E00E942C09089535
:1013000060930001709301018093020190930301A7
:101310000895B7FF0C940C090E940C09821B930BD3
:061320000895F894FFCFD0
:101326000100000006050D0E2C0079002C78003A0D
:101336000000000000A705130729054205340585AE
:10134600050D0A006E616E00696E66006F766600B6
:021356002E0067
:00000001FF
