:100000000C945C000C946E000C946E000C946E00CA
:100010000C946E000C946E000C946E000C946E00A8
:100020000C946E000C946E000C946E000C946E0098
:100030000C946E000C946E000C946E000C946E0088
:100040000C94BB000C946E000C946E000C946E002B
:100050000C946E000C946E000C946E000C946E0068
:100060000C946E000C946E00000000080002010069
:100070000003040700000000000000000102040863
:100080001020408001020408102001020408102002
:10009000040404040404040402020202020203032E
:1000A0000303030300000000250028002B000000CC
:1000B0000000240027002A0011241FBECFEFD8E043
:1000C000DEBFCDBF21E0A0E0B1E001C01D92AA30AB
:1000D000B207E1F70E94AE000C9424020C940000D9
:1000E000CF92DF92EF92FF921F93CF93DF93D82F9F
:1000F000162F569547956A01E12CF12CC0E0C117E7
:1001000091F061E08D2F0E94ED01C701B6010E94C0
:10011000280160E08D2F0E94ED01C701B6010E9409
:100120002801CF5FECCFDF91CF911F91FF90EF902F
:10013000DF90CF9008958DE08093000161E00C94F2
:10014000B4014DE451E063E0809100010E94700031
:1001500068EE73E080E090E00C9428010E9450016A
:100160000E949B00C0E0D0E00E94A1002097E1F334
:100170000E940000F9CF1F920F920FB60F92112428
:100180002F933F938F939F93AF93BF9380910201DF
:1001900090910301A0910401B091050130910101FA
:1001A00023E0230F2D3720F40196A11DB11D05C0BA
:1001B00026E8230F0296A11DB11D20930101809313
:1001C000020190930301A0930401B0930501809173
:1001D000060190910701A0910801B09109010196D3
:1001E000A11DB11D8093060190930701A093080102
:1001F000B0930901BF91AF919F918F913F912F9142
:100200000F900FBE0F901F9018953FB7F8948091F4
:10021000060190910701A0910801B091090126B54E
:10022000A89B05C02F3F19F00196A11DB11D3FBF2E
:100230006627782F892F9A2F620F711D811D911DBE
:1002400042E0660F771F881F991F4A95D1F70895DE
:10025000CF92DF92EF92FF92CF93DF936B017C01FD
:100260000E940501EB01C114D104E104F10489F0FD
:100270000E9423020E9405016C1B7D0B683E7340A7
:1002800090F381E0C81AD108E108F108C851DC4FA9
:10029000EACFDF91CF91FF90EF90DF90CF9008955C
:1002A000789484B5826084BD84B5816084BD85B551
:1002B000826085BD85B5816085BDEEE6F0E0808118
:1002C00081608083E1E8F0E0108280818260808339
:1002D000808181608083E0E8F0E0808181608083BC
:1002E000E1EBF0E0808184608083E0EBF0E08081EE
:1002F00081608083EAE7F0E0808184608083808190
:100300008260808380818160808380818068808337
:100310001092C1000895833081F028F4813099F063
:100320008230A1F008958730A9F08830B9F0843088
:10033000D1F4809180008F7D03C0809180008F7701
:1003400080938000089584B58F7702C084B58F7D37
:1003500084BD08958091B0008F7703C08091B00074
:100360008F7D8093B0000895CF93DF9390E0FC01E0
:10037000E458FF4F2491FC01E057FF4F84918823FC
:1003800049F190E0880F991FFC01E255FF4FA591BC
:10039000B4918C559F4FFC01C591D4919FB76111C9
:1003A00008C0F8948C91209582238C9388818223B5
:1003B0000AC0623051F4F8948C91322F3095832327
:1003C0008C938881822B888304C0F8948C91822B33
:1003D0008C939FBFDF91CF9108950F931F93CF937D
:1003E000DF931F92CDB7DEB7282F30E0F901E8592F
:1003F000FF4F8491F901E458FF4F1491F901E05740
:10040000FF4F04910023C9F0882321F069830E94E3
:100410008B016981E02FF0E0EE0FFF1FEC55FF4FDD
:10042000A591B4919FB7F8948C91611103C0109578
:10043000812301C0812B8C939FBF0F90DF91CF91BF
:0C0440001F910F9108950895F894FFCFCC
:00000001FF
